:020000040800F2
:10000000E0060020CD010008FB0C0008DB0700081B
:10001000F70C0008D70400081D11000800000000BC
:100020000000000000000000000000008D0F00082C
:1000300065050008000000006D0D0008791000083B
:10004000E7010008E7010008E7010008E7010008F0
:10005000E7010008E7010008E7010008E7010008E0
:10006000E7010008AD050008E7010008E701000806
:10007000E7010008E7010008E7010008E7010008C0
:10008000E7010008E7010008E7010008E7010008B0
:10009000E7010008E7010008E7010008E7010008A0
:1000A000E7010008E7010008E7010008E701000890
:1000B000DD100008E7010008E7010008E70100087B
:1000C000E7010008E7010008E7010008E701000870
:1000D000E7010008E7010008E7010008E701000860
:1000E000E7010008E7010008E7010008E701000850
:1000F000E7010008E7010008E7010008E701000840
:10010000E7010008E7010008E7010008E70100082F
:10011000E7010008E7010008E7010008E70100081F
:10012000E7010008E7010008E7010008E70100080F
:1001300000F002F800F03AF80AA090E8000C8244BF
:100140008344AAF10107DA4501D100F02FF8AFF29C
:10015000090EBAE80F0013F0010F18BFFB1A43F0A5
:10016000010318476C5700008C570000103A24BF59
:1001700078C878C1FAD8520724BF30C830C144BF0C
:1001800004680C607047000000230024002500264E
:10019000103A28BF78C1FBD8520728BF30C148BFEA
:1001A0000B6070471FB51FBD10B510BD00F05EF9A4
:1001B0001146FFF7F7FF02F04FFC00F07CF903B4A3
:1001C000FFF7F2FF03BC00F07FF900000948804709
:1001D00009480047FEE7FEE7FEE7FEE7FEE7FEE729
:1001E000FEE7FEE7FEE7FEE704480549054A064B41
:1001F000704700007D10000831010008E000002079
:10020000E0060020E0020020E002002010B54C10C3
:1002100084EA530404D54042C1F1000138BF491EAD
:100220001B4204D55242C3F1000338BF5B1E00F0ED
:1002300048F814F0804F04D04042C1F1000138BFAB
:10024000491E14F0004F04D05242C3F1000338BFDE
:100250005B1E10BD40EA010310B59B070FD1042AB5
:100260000DD310C808C9121F9C42F8D020BA19BA81
:10027000884201D9012010BD4FF0FF3010BD1AB1E6
:10028000D30703D0521C07E0002010BD10F8013B3B
:1002900011F8014B1B1B07D110F8013B11F8014B62
:1002A0001B1B01D1921EF1D1184610BD02F0FF03B5
:1002B00043EA032242EA024200F087B870477047DF
:1002C000704753EA020C00F069802DE9F04B4FF0C3
:1002D0000006002B1FBFB3FA83F503FA05F424FAD6
:1002E00005F65E4012BF1643B2FA82F502FA05F433
:1002F000C5F120051EBF22FA05FC44EA0C04203596
:1003000056EA044C4FEA144418BF641C4FF000082E
:100310004FF00009904271EB030C39D3002919BF4B
:10032000B1FA81F701FA07F6B0FA80F700FA07F69A
:10033000C7F120071EBF20FA07FC46EA0C0620374B
:10034000B6FBF4FCA7EB0507103F07F01F0BCBF142
:1003500020060CFA0BFB2CFA06F644BFB346002627
:10036000202FA4BF5E464FF0000B5BEA060C08BFCF
:100370004FF0010B19EB0B09ABFB027C48EB0608B5
:10038000C01B06FB02CC0BFB03CC71EB0C01C1E7DD
:100390000B46024641464846BDE8F08B13B54FF088
:1003A00000004FF00001AFF30080BDE81C40704733
:1003B00010B500F02BF8006810BD10B5044600F031
:1003C00025F8046010BD4FF000020429C0F012802F
:1003D00010F0030C00F02080CCF1040CBCF1020FF3
:1003E00018BF00F8012BA8BF20F8022BA1EB0C01CD
:1003F00000F012B85FEAC17C24BF00F8012B00F8BE
:10040000012B48BF00F8012B7047000000487047DF
:10041000800000204FF0000200B513469446964637
:10042000203922BFA0E80C50A0E80C50B1F1200107
:10043000BFF4F7AF090728BFA0E80C5048BF0CC0B5
:100440005DF804EB890028BF40F8042B08BF704713
:1004500048BF20F8022B11F0804F18BF00F8012B85
:100460007047000000487047800000207546FFF785
:10047000F9FFAE4605006946534620F00700854661
:1004800018B020B5FFF7B0FEBDE820404FF00006E1
:100490004FF000074FF000084FF0000B21F007016C
:1004A000AC46ACE8C009ACE8C009ACE8C009ACE8AF
:1004B000C0098D46704710B50446AFF30080204652
:1004C000BDE81040FFF77BBE01491820ABBEFEE738
:1004D00026000200704700BFFEE7000038B500208C
:1004E00000906B4601227521682002F00FFA9DF8FA
:1004F000000068280ED000BF1748006800F4E060D4
:1005000016490843001D14490860BFF34F8F00BF10
:1005100000BFFEE702F0C4FBE0B9782003F09AF9CF
:10052000782002F0ABFAC82003F046F901F048FA4F
:100530000B4802F056FA044601F09CFC40F273109E
:1005400001F0E6F8C82001F0C5FB03F02CFA012009
:1005500003F02EF838BD00000CED00E00000FA05B5
:1005600058000020704700B5034603E04FF47A704E
:1005700000F005F8181EA3F10103F7D100BD00EB50
:10058000C001C9004FF0E0225161002191610521B5
:10059000116100BF4FF0E021096901F480310029A9
:1005A000F8D004214FF0E022116170472DE9F041AD
:1005B000082000F017F80848006803F0FBFE064624
:1005C000064A074B03F0B2FA044603F07DFA0249EB
:1005D0000860BDE8F08100006C000020D0E2D6EE9B
:1005E000682DF63E01490860704700001404014080
:1005F000002123498279002A3AD00A46126803680A
:100600009A430B461A600A1D126803689A430B1D31
:100610001A60027911440A6803681A430A60184A8A
:100620000832126803689A43154B08331A601A1D82
:10063000126803689A43124B0C331A604279102AED
:100640000ED11A1F126803681A430D4B08331A6043
:100650001A1D126803681A43094B0C331A600DE027
:100660000749427911440A6803681A430A6005E0A1
:10067000027911440A6803689A430A6070470000CF
:100680000004014030B500228B071C0F0F2303FA32
:1006900004F20B4B8C1053F824309343084C8D100C
:1006A00044F8253023468C1053F824308C07240F4F
:1006B00000FA04F42343024C8D1044F8253030BD79
:1006C000080001402DE9F0410246002500260020E7
:1006D00000230024002791F803C00CF00F0591F8C7
:1006E00003C00CF0100CBCF1000F03D091F802C055
:1006F0004CEA050591F800C0BCF1000F31D0146838
:1007000000202BE04FF0010C0CFA00F3B1F800C010
:100710000CEA03069E4220D183004FF00F0C0CFA26
:1007200003F7BC4305FA03FC4CEA040491F803C048
:10073000BCF1280F06D14FF0010C0CFA00FCC2F8F6
:1007400014C00AE091F803C0BCF1480F05D14FF086
:10075000010C0CFA00FCC2F810C0401C0828D1D3D0
:100760001460B1F800C0BCF1FF0F34DD5468002004
:100770002EE000F1080C4FF0010808FA0CF3B1F874
:1007800000C00CEA03069E4221D183004FF00F0CFB
:100790000CFA03F7BC4305FA03FC4CEA040491F895
:1007A00003C0BCF1280F05D100F1080C08FA0CF8C1
:1007B000C2F8148091F803C0BCF1480F07D100F1D2
:1007C000080C4FF0010808FA0CF8C2F81080401C21
:1007D0000828CED35460BDE8F08100BFFEE770B5B5
:1007E00005460E46002400F0E9F8284600F0B4F86B
:1007F000641C00F03BF9304600F0AEF8641C00F0D9
:1008000035F900F0DBF8691CC8B200F0A5F8641CEB
:1008100000F02CF9002000F067F8044600F002F91F
:10082000204670BD10B500200E4908600E480068D3
:1008300020F470600C4908600846006840F440707D
:10084000086000200949C1F888010120FFF797FEE0
:10085000012004490860FFF792FE00200349C1F817
:10086000840110BD840121420008014000002142A2
:1008700008B50121042000F07BFA0620ADF8000045
:1008800010208DF8030003208DF80200694602480D
:10089000FFF718FF08BD00000008014010B5002058
:1008A0000E4908600E48006820F470600C4908602A
:1008B0000846006840F44070086001200949C1F80A
:1008C0008801FFF75CFE012004490860FFF757FE2E
:1008D00000200449C1F8840110BD000084012142B8
:1008E000000801400000214270B505460024174869
:1008F000006820F47060154908600846006840F4FC
:1009000000600860002616E00020114908600220FF
:10091000FFF735FE01200F49C1F884016006040E7F
:100920000B487C38006808B1601CC4B20220FFF795
:1009300026FE701CC6B2082EE6DB15B1FFF772FF6B
:1009400001E0FFF7ABFF204670BD0000000801404A
:10095000840121420000214270B504461448006819
:1009600020F47060124908600846006840F4407046
:10097000086000200F490860002516E0E0090D49D5
:10098000091D08606006040E0120FFF7F8FD012034
:100990000949C1F88401FFF7F2FD0020054908600C
:1009A0000120FFF7ECFD681CC5B2082DE6DB70BD29
:1009B00000080140840121420000214210B5164880
:1009C000006820F47060144908600846006840F42C
:1009D000407008600120114908601148D0F80801F2
:1009E00008B9002010BD01200C49091F0860FFF75D
:1009F000C6FD00200A49C1F888010848803800680F
:100A000008B10020EEE70120FFF7B9FD00200349FF
:100A1000091F08600120E5E7000801408801214224
:100A20000000214210B50E48006820F470600C49A7
:100A300008600846006840F44070086000200949DA
:100A400008600949C1F888010120FFF798FD0120DD
:100A5000044908600449C1F88801FFF790FD10BD02
:100A600000080140840121420000214210B5002409
:100A70001548006820F47060134908600846006853
:100A800040F400600860012010490860FFF777FD1E
:100A900001200F49C1F88401FFF771FD0AE0601CD5
:100AA000C4B2322C03DDFFF7BDFF002010BD0120D2
:100AB000FFF765FD0548803800680028EFD103493D
:100AC000091F08600120F1E7000801408801214268
:100AD0000000214270B505460E46144631462846B0
:100AE000FFF77DFE2070012070BDF8B506460F4669
:100AF00014461D466A4639463046FFF7EBFF2DB1D6
:100B00000120A0409DF80010084305E00120A0400E
:100B10009DF8001021EA0000C0B200909DF800206E
:100B20003946304600F036F8F8BD2DE9F84307465F
:100B3000884614461D46089E6A4641463846FFF7D9
:100B4000C9FF28B3601CFF2101FA00F0C4F10801BD
:100B50002944491EFF220A41104300F0FF09C5F154
:100B6000080006FA00F0C6B2C4F1070006419DF87D
:100B7000000000EA090000909DF80000304300905A
:100B80009DF800204146384600F004F8BDE8F8839F
:100B90000020FBE737B504460D4602AB012229468B
:100BA000204600F001F83EBD2DE9F04180460D469B
:100BB00016461F460024FFF701FF4046FFF7CCFE14
:100BC000FFF754FF2846FFF7C7FEFFF74FFF00BFB0
:100BD00006E0385DFFF7C0FEFFF748FF601CC4B2B7
:100BE000B442F6DBFFF71EFF0120BDE8F0810000F4
:100BF0001FB50121084600F0BBF80121042000F0D8
:100C0000B7F80820ADF80C0048208DF80F0003A9B4
:100C10001148FFF757FD03210020FFF733FD08209F
:100C2000019000208DF808000C208DF809000120AB
:100C30008DF80A0001A8FFF7DBFC09208DF8000001
:100C400002208DF8010001208DF802008DF80300CC
:100C5000684600F053F81FBD0008014010B502209F
:100C600000F010F8032000F021F8002000F014F844
:100C7000002000F037F8002000F02BF8002000F0F2
:100C80001FF810BD38B50446032302226B21D02083
:100C90000094FFF74AFF38BD38B50446022304220A
:100CA0001C21D0200094FFF740FF38BD38B5044622
:100CB000022304221B21D0200094FFF736FF38BD09
:100CC00010B50446234601223721D020FFF70DFF3F
:100CD00010BD10B50446234605226A21D020FFF737
:100CE00004FF10BD10B50446234606226B21D02018
:100CF000FFF7FBFE10BD00BFFEE7704770B5002197
:100D000000230F22C47804B3154C246804F4E06473
:100D1000C4F5E064210AC1F10403CA40447804FA2E
:100D200003F184781440214309010E4C0678A15543
:100D3000047804F01F050124AC4005786D11AD0066
:100D400005F1E025C5F8004109E0047804F01F052D
:100D50000124AC40044D0678761145F8264070BD5C
:100D60000CED00E000E400E080E100E070470000EE
:100D700029B1064A92690243044B9A6104E0034A8E
:100D800092698243014B9A61704700000010024053
:100D90002DE9F04F8FB00CA872490DAB08AACDE930
:100DA00000107149714800F017FE6E48008800F489
:100DB000807000287ED0089803F0C8FC04464FF0ED
:100DC0009D4103F091FB6A490860099803F0BEFC5D
:100DD00004464FF09D4103F087FB664908600A987E
:100DE00003F0B4FC04464FF09D4103F07DFB6249E3
:100DF00008600B9803F0AAFC04464FF09D4103F0F5
:100E000073FB5E4908605C4801684FF0804003F066
:100E1000FDFC039058480168039803F0F7FC8246F4
:100E2000544801684FF0404003F0F0FC03905148F3
:100E30000168039803F0EAFC8346514603F0E4FDA1
:100E400081464FF07E5103F0E1FA044603F0B2FA16
:100E5000CDE90401464801684FF0804003F0D6FC1C
:100E6000834644480168584603F0D0FC8146424816
:100E700001684FF0804003F0C9FC83463F48016899
:100E8000584603F0C3FC8246494603F0BFFA0446C5
:100E900003F090FA0746DDE9042300F01BFB05464A
:100EA0004FF06632364B03F091F8CDE9060102F0BF
:100EB0000BFE00E052E033490860304801680068EA
:100EC00003F0A4FC05902C480168006803F09EFC28
:100ED000049028480168006803F098FC02902448B8
:100EE0000168006803F092FC0190029903F08EFA09
:100EF0000390049903F088FD8346059903F084FD6F
:100F0000824603F057FACDE906011C4801681848EB
:100F1000006803F07BFC05901748016815480068DD
:100F200003F074FC0490059903F070FA83464FF0C7
:100F3000804103F06BFC824603F03CFA8046DDE919
:100F4000062300F0C7FA06464FF066320C4B03F05A
:100F50003DF8044602F0B8FD0B4908600FB0BDE84B
:100F6000F08F000038000020320000202C0000200C
:100F7000480000204C0000205000002054000020B9
:100F800066A64C404000002044000020704710B589
:100F900000F002F810BD00000CB500200190009098
:100FA0003348006840F480303149086000BF304861
:100FB000006800F4003000900198401C01900098F7
:100FC00018B90198B0F5A06FF1D12948006800F474
:100FD000003010B10120009001E000200090009846
:100FE000012843D12348006840F0100021490860DF
:100FF0000846006820F0030008600846006840F0DA
:10100000020008601A48406819494860084640686C
:1010100048600846406840F4806048600846406880
:1010200020F47C1048600846406840F4E8104860AE
:101030000846006840F08070086000BF0C480068F7
:1010400000F000700028F9D00948406820F0030043
:10105000074948600846406840F00200486000BF09
:101060000348406800F00C000828F9D10CBD0000CE
:1010700000100240002002407047000010B51348E5
:10108000006840F0010011490860084640681049B6
:1010900008400E494860084600680E4908400B4960
:1010A00008600846006820F4802008600846406810
:1010B00020F4FE0048604FF41F008860FFF767FFD0
:1010C0004FF000600449086010BD000000100240AD
:1010D0000000FFF8FFFFF6FE08ED00E010B501216B
:1010E000880700F00AF8012803D10121800700F0E9
:1010F00001F810BDCA430282704730B50246002095
:1011000000230024158A05EA0103958905EA0104F4
:1011100013B10CB1012000E0002030BD00BFFEE79C
:10112000490050EAC12018BF04204A0D18BF40F002
:10113000010040F2FF72B2EB515F08BF40F00200C5
:10114000012808BF052070472DE9F0414F1E00EB34
:10115000C7010446D1E9000115461E4637F00602D4
:101160000DD02A46334602F031FF7F1E04EBC70341
:10117000D3E9002302F0DAFC37F00602F1D1022FA6
:1011800025D0042F13D0062F18BFBDE8F0812A46C2
:10119000334602F01BFFD4E90A2302F0C7FC2A46BB
:1011A000334602F013FFD4E9082302F0BFFC2A46BD
:1011B000334602F00BFFD4E9062302F0B7FC2A46BF
:1011C000334602F003FFD4E9042302F0AFFC2A46C1
:1011D000334602F0FBFED4E9022302F0A7FC2A46C4
:1011E000334602F0F3FED4E90023BDE8F04102F0FB
:1011F0009DBC012203F0AFBC02F098BC024A002063
:10120000110703F0A8BC000001FDFFFF2DE9FE4F10
:1012100006460F460025684601F060F8002442E0CB
:1012200056F8240057F82410A0EB010ABAF1000F79
:1012300001DB514601E0CAF10001084603F086FADD
:1012400083464FF08F4103F04FF980465DF824004C
:10125000002103F00BFA16D05DF82410404603F08D
:1012600043F982464FF07E5103F0CEFB814629F0D0
:10127000004A0F48416A504603F094FB12D2012005
:10128000A04005430EE00A48C169404603F08AFACF
:1012900005D30748016A404603F084FB02D20120CF
:1012A000A0400543641C032CBADB2846BDE8FE8F32
:1012B0000C4C00082DE9F84F04460D4621F0004083
:1012C00000917349814211DC7249884201DC06D1E8
:1012D0002CB120462946BDE8F84FFFF78ABF6E487B
:1012E000002DCCBF6D496E49BDE8F88F6D49814234
:1012F00011DD6D498142D8BF4FF0FF366DDD2046CC
:101300002946FFF70DFF042808BFFFF777FF2046A7
:101310002946BDE8F88F6549654F25F000458142B3
:1013200033DD6449814219DD002632464FF08043A7
:101330002046294602F0FAFB80468A4601222046D2
:10134000294603F008FC00223B4602F049FF4246D2
:10135000534602F0A7FC04460D463EE0012600225B
:10136000BA463B462046294602F0E0FB80460F463F
:10137000002253462046294602F032FF42463B46B1
:1013800002F090FC04460D4627E04B4981421BDDEC
:10139000DFF828A10226002253462046294602F003
:1013A00015FE00223B4602F0C1FB80460F4600229C
:1013B00053462046294602F013FF42463B4602F0C0
:1013C00071FC04460D4608E0032622462B46002009
:1013D0003B4902F067FC04460D4622462B46104668
:1013E000194602F0F3FD8B46824602460B4602F098
:1013F000EDFD07460246334888460B4606217844F1
:10140000FFF7A2FE52465B4602F0E0FD82462E4800
:101410008B463A46434605217844FFF795FE3A4607
:10142000434602F0D3FD02460B46002E5046594675
:101430000CDA02F07BFB22462B4602F0C7FD01B01E
:1014400022462B46BDE8F04F02F0BEBE02F06EFB16
:1014500022462B4602F0BAFD1C4A7A4402EBC60330
:10146000D3E9002302F0BCFE22462B4602F0B8FE70
:10147000174A7A4402EBC603D3E9002302F0A4FE24
:10148000009A002AB8BF81F00041BDE8F88F000043
:10149000000010440000F07F182D4454FB21F93F58
:1014A000FB21F9BF0000DC3F0000203E0000F33FBD
:1014B0000000F03F0000E63F008003400000F83FDE
:1014C0000000F0BF9644000054440000F2430000C6
:1014D000BA4300002DE9F04D9446CCF1000423F00E
:1014E00000464CEA0404594F46EAD4749A468846AA
:1014F00021F00042BC4206D8454240EA050442EAD7
:10150000D474BC4204D9BDE8F04D6246FFF774BE06
:10151000AAF14055A5F17F6555EA0C040BD00224D1
:1015200004EAAA744A4DDFF82CE144EAD87452EA7E
:10153000000B04D00CE0BDE8F04DFFF7BBBE002C63
:1015400014BF012CBDE8F08D022C30D0032C32D01A
:1015500056EA0C0B0AD0BE4220D1BA4209D126F07D
:10156000804622F080423346114617E000291ADBFC
:1015700025E0DFF8E4B0FB44002C04BFDBE9000108
:10158000BDE8F08D012C02BFDBE9000181F00041D4
:10159000BDE8F08D022C0AD0032C0CD0BA4212D137
:1015A000B8F1000F0BDA2A482C49BDE8F08D284627
:1015B0002B49BDE8F08D28467146BDE8F08D2448E2
:1015C0002849BDE8F08D921B12153C2AC4BF204F5C
:1015D000244E10DCBAF1000FBEBF12F13C0F002701
:1015E0003E4608DB624602F05DFB21F00041FFF75A
:1015F00061FE07460E4694B1012C08BF86F00046F6
:101600000DD0194A194B022C3846314615D002F03C
:10161000E7FD2A46BDE8F04D114B02F0E1BD002286
:1016200013463846314602F095FC04BF0220FEF70F
:10163000C4FE38463146BDE8F08D02F0D1FD2A46A1
:10164000BDE8F04D064B02F0BFBD00000000F07F8A
:10165000182D4454FB2109C04E430000FB21F9BF63
:10166000FB210940FB21F93F075C143326A6A13C6E
:101670002DE9F0410446E07800F0C006E07800F083
:101680003F05607800F0010098B1EF102846E91797
:1016900005EB5171C910A5EBC101491C01F0FF0810
:1016A0000B48006820B10A48414602683846904716
:1016B00000BF607800F0080030B10548406818B1FC
:1016C000B011034A516888470020BDE8F08100004E
:1016D0007000002038B5044664B120208DF8000069
:1016E00028208DF8010030208DF8020038208DF878
:1016F000030004E0A32204216846FEF7D7FD6A46F2
:10170000042140F69E2002F00DF901F0FDFC38BDE9
:101710003EB5044602208DF80000CA208DF8010075
:10172000E3208DF8020009208DF803006A460421A9
:10173000682002F0F7F8A3208DF8000004F04000C4
:1017400048B1C0208DF80100C8208DF80200C220E9
:101750008DF8030006E0A3208DF801008DF802004B
:101760008DF8030004F4C07048B1C4208DF8040063
:10177000CC208DF80500C6208DF8060006E0A320D9
:101780008DF804008DF805008DF80600A3208DF873
:1017900007008DF808008DF809006A460A2140F616
:1017A000A72002F0BFF804F0030018B120208DF844
:1017B000000002E0D8208DF800006A46012140F6C2
:1017C000B62002F0AFF804F0200018B1012000F0BC
:1017D000ADF802E0002000F0A9F804F4C07008B3EE
:1017E00004F4807060B1B2208DF800008B208DF879
:1017F0000100B6208DF802009B208DF803000BE05D
:10180000B0208DF8000080208DF80100B4208DF804
:10181000020090208DF803006A46042140F6A220C1
:1018200002F080F804F0010020B3F8208DF80000E9
:101830006A4601214FF40B6002F074F8FA21072088
:1018400000F02CFC072000F0F3FB012000F013FC5B
:10185000642000F0F3FC4FF4FA7000F002FDC821A0
:10186000304800F0A3FB282000F0BCFB0A2000F069
:10187000CCFB08E0D8208DF800006A4601214FF427
:101880000B6002F04FF804F0020018B1D9208DF877
:10189000000002E0D8208DF800006A46012140F2E5
:1018A0003D7002F03FF804F0040018B1012000F090
:1018B00069F802E0002000F065F804F0100018B1AB
:1018C0000120FFF707FF02E00020FFF703FF44F0CD
:1018D00008001549488101F017FC0020124988735F
:1018E00004F0400018B10846807B801D887304F422
:1018F000C07020B10C48807B801D0B49887304F0B8
:10190000140020B10848807B10300749887304F028
:10191000030020B10448807B001D03498873002028
:101920003EBD000009E3CA02700000203EB5044637
:101930006CB10EA1D1E900208968CDE900200291A7
:101940006A4609214FF4976001F0ECFF3EBD0AA200
:10195000D2E900109268CDE9010200916A4609219E
:101960004FF4976001F0DEFFF0E70000B8AAB38DF6
:10197000B4980D355D000000B8AAAAAAB088C3C506
:10198000C700000038B5044664B1C0208DF80000DF
:10199000C2208DF80100C4208DF80200C6208DF809
:1019A000030004E08B2204216846FEF77FFC6A46B0
:1019B000042140F6982001F0B5FF01F0A5FB38BDE9
:1019C00010B5C8234FF48062024940F6F63001F0AA
:1019D0002FFA10BD344C00082DE9F04F8DB00746AA
:1019E000884615469946DDE9166B002400203080B4
:1019F0006B49887B5A4605A901F0E6FA18B1601ECA
:101A00000DB0BDE8F08F6648807A00F01400002821
:101A100067D09DF8140000069DF8151040EA0140BB
:101A20009DF8161040EA01209DF817100843286021
:101A30009DF8180000069DF8191040EA01409DF835
:101A40001A1040EA01209DF81B10084368609DF8B9
:101A50001C0000069DF81D1040EA01409DF81E1074
:101A600040EA01209DF81F100843A8609DF820005F
:101A700000069DF8211040EA01409DF8221040EA3E
:101A800001209DF823100843E86004F11000C4B25F
:101A9000286800140190686800140290A868001477
:101AA0000390E8680014049001984043029901FBF8
:101AB0000100039901FB0100049901FB010ABAF13D
:101AC000706F02DBBAF1885F05DD01F01DFB0020BD
:101AD0003080401E94E7B6F9000040F480703080FA
:101AE00000BF2F48807A00F0400020B305A9601C99
:101AF000085C095D40EA012000B2A8F8000005A9D1
:101B0000E01C095C05AAA01C105C41EA002000B2A0
:101B1000A8F8020005A9601D095C201D105C41EABF
:101B2000002000B2A8F80400A01DC4B2B6F900005D
:101B300040F0080030801A48408900F4C07008B3B3
:101B400005A9601C085C095D40EA012000B23880EC
:101B500005A9E01C095C05AAA01C105C41EA002054
:101B600000B2788005A9601D095C201D105C41EA67
:101B7000002000B2B880A01DC4B2B6F9000040F049
:101B8000700030800648807A00F0030018B105A983
:101B90000819FFF76DFD484601F004FF00202FE70C
:101BA0007000002070B588B0064601A800F0C4FFA0
:101BB000BDF804000021C90341EA5045C40344486C
:101BC000007A00F0030056F8200005904048007AA3
:101BD00000F0040010B10598404205903C48007A9E
:101BE000C0F3C10056F8200006903948007A00F092
:101BF000200010B10698404206903548007AC0F3A4
:101C0000811056F8200007903148008900F4807058
:101C100010B10798404207900598C117A0FB042314
:101C200001FB043100FB0510810041EA9270059030
:101C30000698C117A0FB042301FB043100FB05102B
:101C4000810041EA927006900798C117A0FB042317
:101C500001FB043100FB0510810041EA92700790FE
:101C60000598000E8DF808000598000C8DF8090005
:101C70000598000A8DF80A000598C0B28DF80B008F
:101C80000698000E8DF80C000698000C8DF80D00DB
:101C90000698000A8DF80E000698C0B28DF80F0065
:101CA0000798000E8DF810000798000C8DF81100B1
:101CB0000798000A8DF812000798C0B28DF813003B
:101CC00002AA0C214FF4257001F02CFE08B070BD63
:101CD0007000002030B585B0044616A207CA02ABDA
:101CE00007C3C82C03DD4FF0FF3005B030BDC8205E
:101CF00090FBF4F0401E85B2280A8DF80000E8B28F
:101D00008DF801006A46022140F2162001F00AFE19
:101D100010B14FF0FF30E8E702AA0C2140F6C120D5
:101D200001F000FE10B14FF0FF30DEE7044884817F
:101D30000020DAE7FEF2ABC4AAF1DFDFBBAFDFDFE2
:101D4000700000201FB504464848007A00F00300E8
:101D500054F8200001904548007A00F0040010B1CA
:101D60000198404201904148007AC0F3C10054F804
:101D7000200002903D48007A00F0200010B1029847
:101D8000404202903948007AC0F3811054F8200094
:101D900003903648008900F4807010B103984042E7
:101DA00003903349019880FB0101800F40EA8100D4
:101DB00001902F49029880FB0110820042EA917045
:101DC00002902B49039880FB0110820042EA917037
:101DD00003900198000E8DF800000198000C8DF81A
:101DE00001000198000A8DF802000198C0B28DF838
:101DF00003006A4604214FF4747001F093FD18B19A
:101E00004FF0FF3004B010BD0298000E8DF80000B6
:101E10000298000C8DF801000298000A8DF802006B
:101E20000298C0B28DF803006A4604214FF4757021
:101E300001F078FD10B14FF0FF30E3E70398000E9A
:101E40008DF800000398000C8DF801000398000A3B
:101E50008DF802000398C0B28DF803006A46042191
:101E60004FF4767001F05EFDCCE7000070000020BA
:101E700009E3CA0210B586B0044647A00068039083
:101E800046A00068029046A00068019045A0006846
:101E9000009004F0030003A9085C8DF8140003A867
:101EA000C4F3C101405C8DF8150003A8C4F381118F
:101EB000405C8DF8160004F0030002A9085C8DF860
:101EC000100002A8C4F3C101405C8DF8110002A803
:101ED000C4F38111405C8DF8120005AA032140F281
:101EE000264001F01FFD18B14FF0FF3006B010BDC5
:101EF00004AA032140F22A4001F014FD10B14FF072
:101F0000FF30F3E7019805900098049004F0040076
:101F100058B19DF8140040F001008DF814009DF8B0
:101F2000100040F001008DF8100004F0200058B1BE
:101F30009DF8150040F001008DF815009DF8110086
:101F400040F001008DF8110004F4807058B19DF844
:101F5000160040F001008DF816009DF8120040F0C8
:101F600001008DF8120005AA03214FF4886001F0EA
:101F7000D9FC10B14FF0FF30B8E704AA032140F2BA
:101F8000314001F0CFFC10B14FF0FF30AEE7064812
:101F900004810020AAE700004CCD6C000CC92C0085
:101FA000365676002646660070000020F8B50546D5
:101FB0000E464FF47A7095FBF0F000FB06F4200E0D
:101FC0008DF80000200C8DF80100200A8DF8020029
:101FD000E0B28DF803006A4604214FF4AE7001F0C0
:101FE000A1FCF8BD38B50446052094FBF0F084B29E
:101FF00020128DF80000E0B28DF801006A4602213F
:102000004FF4AD7001F08EFC38BD38B504460520A4
:1020100094FBF0F084B220128DF80000E0B28DF84D
:1020200001006A4602214FF4AC7001F07BFC38BD20
:1020300038B504460020009004F0010020B19DF85E
:10204000000040F03000009004F0020020B19DF844
:10205000000040F00C00009004F0040020B19DF856
:10206000000040F0030000906A4601214FF4A47084
:1020700001F058FC38BD38B50446012C01DA0124C2
:1020800002E0042C00DD0424601EC0B200906A4609
:10209000012140F24F1001F045FC38BD2DE9FC470D
:1020A00006460F4606F0070010B1B7F5C86F03DD0E
:1020B0004FF0FF30BDE8FC87384602F05FFB8146F9
:1020C000594902F011FA8046684600F00FFD9DF86C
:1020D0000000022806D0042816D0082826D0102890
:1020E00048D135E04FF08D41404602F08FFB8146EC
:1020F00002F00CFB84B24D49404602F087FB81465A
:1021000002F004FB85B238E04FF08C41404602F00B
:102110007DFB814602F0FAFA84B24549404602F05E
:1021200075FB814602F0F2FA85B226E04FF08B4152
:10213000404602F06BFB814602F0E8FA84B23D496A
:10214000404602F063FB814602F0E0FA85B214E0FB
:102150004FF08A41404602F059FB814602F0D6FA20
:1021600084B23549404602F051FB814602F0CEFA76
:1021700085B202E04FF0FF309CE700BF20128DF8DF
:102180000400E0B28DF8050028128DF80600E8B2D0
:102190008DF8070006F00100A0B101AA02214FF45A
:1021A000EA7001F0BFFB10B14FF0FF3082E70DF194
:1021B000060202214FF4927001F0B4FB10B14FF00F
:1021C000FF3077E706F00200A0B101AA02214FF428
:1021D000EC7001F0A7FB10B14FF0FF306AE70DF192
:1021E000060202214FF4947001F09CFB10B14FF0F5
:1021F000FF305FE706F00400A0B101AA02214FF40E
:10220000EE7001F08FFB10B14FF0FF3052E70DF18F
:10221000060202214FF4967001F084FB10B14FF0DA
:10222000FF3047E7002045E70000484300004046F4
:102230000000C045000040450000C04438B50446D9
:10224000052094FBF0F085B228128DF80000E8B26A
:102250008DF801006A4602214FF4EF7001F062FB35
:1022600038BD38B50446052094FBF0F085B228123D
:102270008DF80000E8B28DF801006A4602214FF4A3
:10228000ED7001F04FFB38BD70B504460D46FEF70A
:102290007FFD00210F48006802F084FA06D20E4943
:1022A0000C48006802F0B2F80A4908600948006862
:1022B00020602968206802F0A7FB206000212068C8
:1022C00002F070FA04D20449206802F09FF82060FE
:1022D00070BD0000440000200000B4437CB50546FA
:1022E00028494968087801AB04220D2100F00EFB53
:1022F00008B107207CBD9DF80700C0F301109DF8D0
:10230000041001F0E00140EAE1008DF800009DF8C2
:102310000700C0F381009DF8051001F0E00140EADC
:10232000E1008DF801009DF8070000F003009DF822
:10233000061001F0E00140EAE1008DF802000024FF
:102340001CE01DF8040018B9002045F8240013E033
:102350000D4845F8240006E055F824000B4902F02A
:1023600055FA45F824001DF80400401EC0B20DF8CF
:1023700004000028F0D100BF601CC4B2032CE0DBD5
:102380000020B7E7000000207B14AE3E1D5A843FBA
:102390002DE9F04F87B005460C46914601208DF897
:1023A000100000208DF81100FE4A1268917CFD4A51
:1023B0005268107804AB022200F0E3FA20B14FF02B
:1023C000FF3007B0BDE8F08FC820FEF7CCF8002042
:1023D0008DF81000F34A1268D17BF24A52681078E7
:1023E00004AB012200F0CDFA10B14FF0FF30E8E766
:1023F000EC4A12685179EB4A5268107804AB01221A
:1024000000F0BFFA10B14FF0FF30DAE7E54A12688A
:10241000917CE44A5268107804AB012200F0B1FAD2
:1024200010B14FF0FF30CCE7DE4A1268D17DDD4AB3
:102430005268107804AB012200F0A3FA10B14FF0FB
:10244000FF30BEE7D74A12681179D64A5268107831
:1024500004AB012200F095FA10B14FF0FF30B0E765
:102460000C208DF81000CF4A12681179CD4A5268BD
:10247000107804AB012200F084FA10B14FF0FF3065
:102480009FE70F20FEF76FF8C648806A407A8DF804
:102490001000C44A12689178C24A5268107804AB9E
:1024A000012200F06EFA10B14FF0FF3089E7BD480D
:1024B000806A007A8DF81000BA4A12685178B94AD9
:1024C0005268107804AB012200F05BFA10B14FF0B3
:1024D000FF3076E7B9F1000F07D0B248806A807A02
:1024E00040F0E0008DF8100004E0AE48806A807A89
:1024F0008DF81000AB4A12689179AA4A5268107898
:1025000004AB012200F03DFA10B14FF0FF3058E764
:10251000B9F1000F07D0A348806AC07A40F0E0000C
:102520008DF8100003E0A048C07A8DF810009D4A95
:102530001268D1799B4A5268107804AB012200F0EE
:1025400020FA10B14FF0FF303BE7B9F1000F02D095
:10255000C820FEF708F840208DF81000914A126854
:102560001179904A5268107804AB012200F009FA00
:1025700010B14FF0FF3024E778208DF81000894A21
:1025800012685179874A5268107804AB012200F032
:10259000F8F910B14FF0FF3013E783498889FDF750
:1025A000E2FF00208DF810007E4A126851797D4AC2
:1025B0005268107804AB012200F0E3F910B14FF03B
:1025C000FF30FEE6774A1268917A764A52681078B0
:1025D00004AB022200F09AF910B14FF0FF30F0E6A0
:1025E0009DF811009DF8101040EA012B0C209BFB78
:1025F000F0F0C6B20020A86068602860A06060604B
:102600002060824665E0674A1268D17A654A52685E
:10261000107804AB0C2200F079F910B14FF0FF30C4
:10262000CFE69DF811009DF8101040EA012000B29D
:10263000ADF808009DF813009DF8121040EA012043
:1026400000B2ADF80A009DF815009DF8141040EA9C
:10265000012000B2ADF80C00BDF908102068084454
:102660002060BDF90A10606808446060BDF90C1074
:10267000A0680844A0609DF817009DF8161040EA75
:10268000012000B2ADF800009DF819009DF8181067
:1026900040EA012000B2ADF802009DF81B009DF851
:1026A0001A1040EA012000B2ADF80400BDF9001094
:1026B000286808442860BDF902106868084468600A
:1026C000BDF90410A8680844A8600AF1010000F0F0
:1026D000FF0AB24597DB3448D0F800C02868C1171C
:1026E000090441EA10410704624600233846FDF719
:1026F0008DFD32460023CDE90201FDF787FD2860FC
:102700002948D0F800C06868C117090441EA10419F
:102710000704624600233846FDF778FD3246002361
:10272000CDE90201FDF772FD68601F48D0F800C0D6
:10273000A868C117090441EA104107046246002352
:102740003846FDF763FD32460023CDE90201FDF76F
:102750005DFDA8601448D0F804C02068C1170904C2
:1027600041EA10410704624600233846FDF74EFD5A
:1027700032460023CDE90201FDF748FD20600A48FA
:10278000D0F804C06068C117090441EA1041070489
:10279000624600233846FDF739FD32460023CDE975
:1027A000020103E0000000200C4C0008FDF72EFDA4
:1027B00060601148D0F804C0A068C117090441EA5C
:1027C00010410704624600233846FDF71FFD3246DC
:1027D0000023CDE90201FDF719FDA060A0680028E3
:1027E00004DDA068A0F58030A06003E0A06800F5DB
:1027F0008030A0600020E4E50C4C00082DE9FC5F6F
:1028000006460F4600253D494968087801AB03227A
:102810000D2100F07BF810B10720BDE8FC9F9DF86A
:10282000040000F01F008DF804009DF8050000F082
:102830001F008DF805009DF8060000F01F008DF8C0
:102840000600002456E056F8240057F82410A0EBA8
:10285000010BBBF1000F01DB594601E0CBF1000198
:10286000084601F073FF4FF08F41009001F03CFEED
:10287000814601A8005D68B32149086801F07EFF28
:10288000834659461F4801F02FFE804604E01E494A
:10289000404601F0BBFF804601A8005D401EC0B26B
:1028A00001A908550028F2D14146484601F01CFE16
:1028B00083464FF07E5102F0A7F882462AF0004B83
:1028C0000F488169584602F06DF812D20120A040ED
:1028D00005430EE00A480169484601F063FF05D34D
:1028E00007484169484602F05DF802D20120A04045
:1028F0000543641C032CA6DB28468EE7000000205D
:102900000C4C000800B04C4554E3853F2DE9F041E4
:1029100006460F4614461D46FEF750F810B9012032
:10292000BDE8F0817106080EFEF716F8FEF79EF876
:1029300018B9FEF777F80120F2E73846FEF70CF8F1
:10294000FEF794F8FEF73AF8012101EB4601C8B210
:10295000FEF702F8FEF78AF80DE0012C04D1002002
:10296000FDF7C2FF287003E00120FDF7BDFF2870CE
:102970006D1C601EC4B2002CEFD1FEF753F800208E
:10298000CEE72DE9F04105460E4617469846FEF77C
:1029900015F810B90120BDE8F0816906080EFDF7B1
:1029A000DBFFFEF763F818B9FEF73CF80120F2E709
:1029B0003046FDF7D1FFFEF759F800240BE018F878
:1029C0000400FDF7C9FFFEF751F818B9FEF72AF821
:1029D0000020E0E7641CBC42F1DBFEF723F8002096
:1029E000D9E770B50546284600F00FF80446E81C04
:1029F00000F00BF844EAC00084B2A81D00F005F80E
:102A000044EA801084B2204670BD014691F900204E
:102A1000002A01DD00201EE091F90020002A01DAE1
:102A2000042018E091F90120002A01DD012012E0C4
:102A300091F90120002A01DA05200CE091F9022029
:102A4000002A01DD022006E091F90220002A01DAC5
:102A5000062000E007207047FDF70AFFFEF7FEF8AA
:102A6000FDF73CFDFEF7C4F803E002490248FFF71A
:102A70000BFCFAE76C0000206800002070B50446EB
:102A8000002624F00104184890F8240008B1002022
:102A900070BD1548807A10B94FF0FF30F8E7124842
:102AA000057C807A2040104908740846007CA042CA
:102AB00002D04FF0FF3600E0002614B90A48007D2E
:102AC00018B1012000F0B8FF02E0002000F0B4FFD0
:102AD0003CB100F019FB20B1034805744FF0FF3002
:102AE000D6E73046D4E70000000000200146114838
:102AF000407A30B1012807D0022808D003280CD131
:102B000008E0022008700BE00420087008E00820AC
:102B1000087005E01020087002E04FF0FF307047A9
:102B200000BF0448C07C18B108784006000E087049
:102B30000020F4E70000002001461348407A30B13D
:102B4000012808D002280AD0032810D10BE04FF446
:102B5000804008800EE041F69C7008800AE04FF447
:102B60008050088006E04FF40060088002E04FF0DB
:102B7000FF30704700BF0448C07C10B10888401087
:102B800008800020F5E70000000000200146024810
:102B9000007C0870002070470000002001460F48AC
:102BA000007A30B1012807D0022809D003280FD1BC
:102BB0000AE0FA2008800EE04FF4FA7008800AE07C
:102BC0004FF47A70088006E04FF4FA60088002E063
:102BD0000020088000BF00BF0020704700000020D8
:102BE00001460E48007A30B1012807D0022808D0EB
:102BF00003280CD108E00A4808600BE00948086087
:102C000008E00948086005E00848086002E04FF065
:102C1000FF30704700BF0020FBE7000000000020ED
:102C200000000343000083423333034233338341C4
:102C300001461248C07A082817D2DFE800F01704CE
:102C4000070A0D101318BC20088013E062200880CA
:102C500010E02A2008800DE0142008800AE00A20F5
:102C6000088007E00520088004E000BF00BF0020C6
:102C7000088000BF00BF0020704700000000002057
:102C80000146064890F8240010B14FF0FF3070471D
:102C90000248C08908800020F9E7000000000020F9
:102CA0001CB580208DF80000604A1268917C5F4A54
:102CB000526810786B460122FFF763FE10B14FF0A7
:102CC000FF301CBD6420FDF74EFC00208DF8000095
:102CD000564A1268917C554A526810786B46012218
:102CE000FFF74FFE10B14FF0FF30EAE74F4A12688E
:102CF000917D4E4A526810786B460622FFF706FE19
:102D000010B14FF0FF30DCE79DF80500C007400F21
:102D10009DF8031001F0010140EA41009DF8011007
:102D200001F0010140EA010474B1012C03D1012139
:102D30003E48C17427E0022C03D100213B48C174F6
:102D400021E04FF0FF30BCE7384A1268D178374AAB
:102D5000526810786B460122FFF7D8FD10B14FF092
:102D6000FF30AEE79DF8000000F00F0414B94FF0FB
:102D7000FF30A6E7042C03D101212C48C17402E0E6
:102D800000212A48C174FF2128488172FF20274969
:102D90000872FF2125484172C1724FF6FF71C1814F
:102DA000FF21017481740121017380F82210002138
:102DB00080F8231041750175163001604160816013
:102DC000163880F8241080F82510C1844FF4FA607A
:102DD00000F036FC10B14FF0FF3072E7022000F037
:102DE000FFFA10B14FF0FF306BE72A2000F0A2FC91
:102DF00010B14FF0FF3064E7322000F0DDFC10B17D
:102E00004FF0FF305DE70020FFF738FE10B14FF0C4
:102E1000FF3056E7002000F025FB10B14FF0FF30E7
:102E20004FE7002000F016FD00204AE700000020D8
:102E30002DE9F04385B005460E469046994629484F
:102E400090F8250020B14FF0FF3005B0BDE8F083C9
:102E500016B94FF0FF30F8E7002423E0281B1028B4
:102E600001DD102000E0281B87B2321939462046C8
:102E700000F058FD10B14FF0FF30E6E701AA3946E7
:102E8000204600F001F910B14FF0FF30DDE73019B6
:102E90003A4601A9FDF7DEF910B16FF00100D4E761
:102EA000E01984B2AC42D9DB4FEA28208DF800004B
:102EB00008F0FF008DF801000A4A1268917E094A65
:102EC000526810786B460222FFF75BFD10B14FF09D
:102ED000FF30BAE70121034880F82510A0F82690BA
:102EE0000020B2E70000002038B50446282C02DD9F
:102EF0004FF0FF3038BDDCB9002000F0E5FB0020CA
:102F00008DF8000007208DF801002E4A1268917C90
:102F10002C4A526810786B460222FFF732FD10B13E
:102F20004FF0FF30E6E70021264801750020E1E779
:102F3000012000F0C9FB20208DF80000012C06D1F3
:102F400000208DF80100052000F0F4FB17E0052CAF
:102F500006DC01208DF80100052000F0EBFB0EE0FF
:102F6000142C06DC02208DF801000A2000F0E2FBA0
:102F700005E003208DF80100142000F0DBFB9DF834
:102F80000100072101EB8010C0B28DF801000D4A4D
:102F90001268917C0B4A526810786B460222FFF748
:102FA000F0FC10B14FF0FF30A4E708210548817212
:102FB00000210173012101750020FFF75FFD002052
:102FC00098E7000000000020F8B504460F461646BA
:102FD0002C4890F8240010B94FF0FF30F8BD294874
:102FE000807A10B94FF0FF30F8E7264A1268917ADC
:102FF000244A526810786B460222FFF787FC10B112
:103000004FF0FF30EAE79DF801009DF8001040EA1C
:103010000125A54203DA00203070401EDEE7194882
:1030200040684088B5EB600F17DD164A1268517C86
:10303000144A526810786B460122FFF767FC10B102
:103040004FF0FF30CAE79DF8000000F0100020B1FB
:1030500000F05AF86FF00100C0E7E2B2094B1B68BC
:10306000D97A084B5B6818783B46FFF74FFC10B1E4
:103070004FF0FF30B2E795FBF4F0401E30700020B7
:10308000ACE7000000000020F8B504460D461646E7
:1030900016B94FF0FF30F8BD1A48807A10B94FF0DA
:1030A000FF30F8E720128DF80000E0B28DF8010043
:1030B0009DF801002844134949684989884202DD86
:1030C0004FF0FF30E7E70F4A1268117E0D4A526851
:1030D00010786B460222FFF754FC10B14FF0FF301E
:1030E000D9E7EAB2074B1B68597D064B5B68187835
:1030F0003346FFF70BFC10B14FF0FF30CBE7002059
:10310000C9E700000000002008B56D48807A10B9BA
:103110004FF0FF3008BD00200090694A1268D17B53
:10312000674A526810786B460122FFF72AFC10B1FB
:103130004FF0FF30EEE7624A12685179604A5268F8
:1031400010786B460122FFF71CFC10B14FF0FF30E6
:10315000E0E75B4A12681179594A526810786B4669
:103160000122FFF70EFC10B14FF0FF30D2E75448B8
:1031700090F82400002850D00C200090504A12688B
:1031800011794F4A526810786B460122FFF7F9FB1C
:1031900010B14FF0FF30BDE7C02000904848807A62
:1031A00000F0010020B19DF8000040F020000090E8
:1031B000434A12681179424A526810786B460122DC
:1031C000FFF7DFFB10B14FF0FF30A3E73C48407C36
:1031D00010B10220009001E000200090384A1268EF
:1031E000D17B374A526810786B460122FFF7C9FB42
:1031F00010B14FF0FF308DE700200090304A126888
:1032000051792F4A526810786B460122FFF7B9FBBB
:10321000002852D04FF0FF307CE704200090284A6D
:1032200012681179264A526810786B460122FFF71E
:10323000A8FB10B14FF0FF306CE72148807C20B92B
:103240001F48807A00F0010010B94020009001E092
:10325000602000901A4A12681179194A5268107851
:103260006B460122FFF78DFB10B14FF0FF3051E7A5
:103270001348407C10B10120009001E00020009034
:103280000F4A1268D17B0E4A526810786B460122B1
:10329000FFF777FB10B14FF0FF303BE7084A1268A9
:1032A0005179074A52681078054B10330122FFF715
:1032B00068FB10B14FF0FF302CE700202AE7000038
:1032C000000000202DE9F04F8DB083460F4602200C
:1032D0000C90424890F8240020B1002000F068F9DA
:1032E000012600E0002603A8FFF758FC05A8FFF719
:1032F000FDFB01A8FFF79CFC02A8FFF7C1FC3748C3
:1033000090F80AA004A8FFF741FC002407E000227F
:1033100039465846FFF73CF800B902E0641C022C1D
:10332000F5DB00BF022C01D1002528E0002407E0D6
:10333000012206A909A8FFF72BF800B902E0641CD6
:10334000022CF5DB00BF022C01D1002517E006A9F5
:103350003846FDF75BFF00F0FF0809A95846FFF764
:103360004DFA00F0FF090025B9F1000F01D145F039
:103370000105B8F1000F01D145F0020500BFFF20A3
:1033800016490872FF2115484172C1724FF6FF714C
:10339000C181FF218172017401210173BDF80C000C
:1033A00000F04EF99DF8140000F01AF8BDF8040082
:1033B00000F0C0F9BDF8080000F0FEF9504600F03A
:1033C00049FA9DF81000FFF759FB16B1012000F0F3
:1033D000EFF828460DB0BDE8F08F00000000002097
:1033E00038B504461E48807A10B94FF0FF3038BD1A
:1033F000022C06D0042C07D0082C08D0102C0CD19D
:1034000008E0002000900BE00820009008E0102069
:10341000009005E01820009002E04FF0FF30E6E752
:1034200000BF0F48407A9DF80010B0EBE10F01D1CA
:103430000020DCE70A4A1268D179094A52681078FC
:103440006B460122FFF79DFA10B14FF0FF30CEE737
:103450009DF80000C110024841720020C7E700003B
:103460000000002038B504465048807CA04201D1BD
:10347000002038BD002C46D04C4A126811794B4AC6
:10348000526810786B460122FFF740FA10B14FF0F6
:10349000FF30EEE79DF8000020F020000090434A46
:1034A00012681179414A526810786B460122FFF781
:1034B00068FA10B14FF0FF30DBE70320FDF753F857
:1034C00002200090394890F8220020B19DF80000B9
:1034D00040F080000090354890F8230020B19DF81E
:1034E000000040F030000090304A1268117D2F4AF1
:1034F000526810786B460122FFF743FA002851D03A
:103500004FF0FF30B5E7294A12681179274A52680F
:1035100010786B460122FFF7F9F910B14FF0FF3038
:10352000A7E72248807A00F0010028B19DF800004A
:1035300040F02000009004E09DF8000020F0200002
:1035400000901A4A12681179184A526810786B462E
:103550000122FFF716FA10B14FF0FF3089E7032080
:10356000FDF701F8114890F8220010B1802000907A
:1035700001E0002000900D4890F8230020B19DF854
:10358000000040F030000090084A1268117D074AA0
:10359000526810786B460122FFF7F3F910B14FF033
:1035A000FF3066E701488474002062E700000020D5
:1035B00038B50446214890F82400A04201D10020EB
:1035C00038BD24B31D4890F8250010B94FF0FF30E6
:1035D000F6E7002000F030FA0020FFF743FF17491C
:1035E000C88C00F0E9F80020009014494968087878
:1035F0006B4601222321FFF7C4F901210F4880F80F
:103600002410012000F018FAFFF77EFD13E00020DF
:1036100000F012FA0948007C0090084949680878CF
:103620006B4601222321FFF7ACF90021034880F803
:103630002410FFF769FD0020C2E700000000002011
:1036400038B504461F48807A10B94FF0FF3038BDB6
:10365000FA2C09D0B4F5FA7F09D0B4F57A7F09D0F5
:10366000B4F5FA6F0CD108E0002000900BE00820C0
:10367000009008E01020009005E01820009002E083
:103680004FF0FF30E3E700BF0E48007A9DF80010CE
:10369000B0EBE10F01D10020D9E70A4A1268917915
:1036A000084A526810786B460122FFF76AF910B198
:1036B0004FF0FF30CBE79DF80000C01001490872C1
:1036C0000020C4E70000002038B50446184890F8F0
:1036D0002300A04201D1002038BD14B13020009059
:1036E00001E0002000901248807C20B19DF800008D
:1036F00040F0020000900E4890F8220020B19DF8A2
:10370000000040F080000090094A1268117D084ACC
:10371000526810786B460122FFF733F910B14FF071
:10372000FF30D9E7024880F823400020D4E70000AA
:103730000000002038B504461E48807A10B94FF0CA
:10374000FF3038BDBC2C02DB0120009015E0622C5C
:1037500002DB0220009010E02A2C02DB0320009004
:103760000BE0142C02DB0420009006E00A2C02DBA4
:103770000520009001E0062000900E48C07A9DF8D8
:103780000010884201D10020DBE70A4A12689178D4
:10379000084A526810786B460122FFF7F2F810B120
:1037A0004FF0FF30CDE79DF800100248C1720020B5
:1037B000C7E700000000002038B504462448807A9E
:1037C00010B94FF0FF3038BD214890F8240010B1F7
:1037D0004FF0FF30F7E71E48007D50B134B1282C80
:1037E00004DCE0B2FFF780FB0020ECE70020FFF7ED
:1037F0007BFB042C01DA042404E0B4F57A7F01DDBC
:103800004FF47A744FF47A7090FBF4F0401EC0B21B
:1038100000900F4A126851780D4A526810786B4632
:103820000122FFF7AEF810B14FF0FF30CBE79DF863
:103830000000401C4FF47A7191FBF0F081B2044813
:10384000C1810146C9894810FFF774FF0020BAE71B
:103850000000002038B5044604F0700010B10120CB
:10386000009005E014B10020009001E0402000909D
:103870002B4A1268917C2A4A526810786B460122C2
:10388000FFF77FF820B1002125488172481E38BD1E
:103890009DF8000020F040012148017300200090B5
:1038A00004F0400020B99DF8000040F004000090B2
:1038B00004F0200020B99DF8000040F002000090C4
:1038C00004F0100020B99DF8000040F001000090C5
:1038D00004F0080020B99DF8000040F03800009086
:1038E0000F4A1268D17C0E4A526810786B4601224A
:1038F000FFF747F820B1002109488172481EC6E74A
:1039000024B1082C02D00020FFF7DEFE04488472A8
:10391000002101753220FCF726FE0020B7E70000E9
:1039200000000020F8B504460D46164616B94FF0C3
:10393000FF30F8BD1A48807A10B94FF0FF30F8E731
:1039400020128DF80000E0B28DF801009DF8010012
:103950002844134949684989884202DD4FF0FF3005
:10396000E7E70F4A1268117E0D4A526810786B46DD
:103970000222FFF706F810B14FF0FF30D9E7EAB2A4
:10398000074B1B68597D064B5B6818783346FEF77A
:10399000F8FF10B14FF0FF30CBE70020C9E700007F
:1039A00000000020704770B588B002A905A8FFF795
:1039B00089FC0446032C3CD101A8FFF711F90598B6
:1039C00000F0C4FE0646019900F020FF054600F015
:1039D00081FE0590069800F0B9FE0646019900F0B8
:1039E00015FF054600F076FE0690079800F0AEFE43
:1039F0000646019900F00AFF054600F06BFE0790AD
:103A000005A8FEF79FF96846FFF796F8BDF8001085
:103A1000029848430290BDF8001003984843039071
:103A2000BDF8001004984843049002A8FEF7BAF8C5
:103A300000BF08B070BD000038B50446214890F8BA
:103A40002400C0B114B10220009001E000200090D9
:103A50001C4A1268D17B1B4A526810786B460122BF
:103A6000FEF78FFF10B14FF0FF3038BD9DF800100A
:103A70001448417423E01348807A10B94FF0FF30A6
:103A8000F3E724B10F48407C08B10020EDE714B102
:103A90000120009001E0002000900A4A1268D17BCA
:103AA000084A526810786B460122FEF76AFF10B18F
:103AB0004FF0FF30D9E79DF8001002484174002014
:103AC000D3E700000000002021F00042A2F1605284
:103AD000B2F5801F01F0004328BFD2F17F6C0BD9F3
:103AE0005FEA001C43EAC20242EB507018BF704705
:103AF00028BF20F001007047B2F5801FBCBF1846F8
:103B000070474FEA410C1CF5001F02D2084600F036
:103B100044BF70B500F004FB00000089FFF7F6BF5A
:103B20004FF00040A0F580007047000010B591EA0A
:103B3000030F48BF83F0004300F15A83841A71EBEE
:103B4000030C05D2121943EB0C03001B61EB0C01B3
:103B5000DFF824E14FEA1154A4EB135C1EEA430F93
:103B600018BF9EEA445F73D023EA0E03DCF1200EF7
:103B700021EA045143F4801332D322FA0CFE10EBF5
:103B80000E0023FA0CFE41EB0E01CCF1200E03FADD
:103B90000EFE10EB0E0051F10001B1F5801FCCF1CB
:103BA000200E32D201EB045112FA0EF2BDE81040A1
:103BB00058BF7047401C38BF5FEA420218BF7047C9
:103BC000002814BF20F0010041F100014FEA410339
:103BD00013F5001F38BF7047A1F1C04100F0EEBAE5
:103BE000012A43EB0302ACF1200CDCF11F0E32BFC3
:103BF0004FF0000E23FA0CF310EB030041EB0451DD
:103C0000B4EB115FD0D0A1EB045101F5801149084C
:103C10005FEA300001EB04510ED350F1000038BFD1
:103C200012FA0EFE08D1BDE81040C9E7401C38BFAB
:103C30005FEA4202CAD1C3E7BDE810404FEA410340
:103C400013F5001F38BF7047A1F1C04100F0B6BAAC
:103C50009EEA445F08D011EA5E0FBDE8104004BF41
:103C600001F0004100207047BDE8104070B500F041
:103C700057FA00BF64FBBE3E0000E0FF02494FF070
:103C8000000000F036BF00BF0000F87F491058BFA9
:103C9000C1F140415B1058BFC3F140438B42EFF389
:103CA000008070472DE9C04130B4DFF8A0C23CEA83
:103CB000111418BF3CEA131400F0EC8081EA0305EC
:103CC0001CEA111444EAD57418BF1CEA131500F05D
:103CD000C780A4EB05044FF0004545EAC12145EA41
:103CE000C32341EA505143EA525304F17F7499428D
:103CF00004F500344FEAC0204FEAC22208BF9042C8
:103D000000F09C804FEA13650FF24016765D4FEA93
:103D1000134506FB05F7C7F1807706FB07F74FEA67
:103D2000D737A7FB03687642C8F58038A7FB06CED5
:103D300038BFA8F1010807FB08E64FF0000EA6FB0C
:103D4000028CE6FB03CEDCF1000CCEF1004E38BF56
:103D5000AEF1010EA6FB0C584FF000074FF0000526
:103D6000E6FB0E87A1FB08C6A0FB07CE16EB0E06EE
:103D700045F10005E1FB076515F1E04E7EBFA4F5B6
:103D800080345FEA46066D4116F1800745F1000573
:103D90004FEA17274FEA066647EA0567A6F1DE46AF
:103DA000B6F1805F4FEA15251FD9384624F0010C83
:103DB00005EBC471BCF1FE6F01EB0C1102D8F0BC35
:103DC000BDE8008124425CBF01F5801E9EEAC47FED
:103DD00002D4F0BCBDE80081244238D4F0BCA1F18B
:103DE000C041BDE8004100F0E9B94FEAD22242EA01
:103DF00043524FEAD323A7FB02864FEAD02040EA82
:103E0000415007FB03661EEA0E0F4FEAD12105FB66
:103E1000026658BFA6EB0056B6EB00564FEA520EAC
:103E20004EEAC37E18EB0E0E56EB530EBDD518EBC3
:103E300002085E417F1C55F10005B6E74FF480157E
:103E40004FF000074FF000064FF00008ADE7F0BC60
:103E50004FF0000001F1C04101F00041BDE80081D8
:103E600011EA0C1F0CEA131500D00CE013EA0C1F2A
:103E700000F025804FF00000F0BC81EA030101F062
:103E80000041BDE80081F0BCBDE8004181EA0301CA
:103E900000F094B9F0BCBDE8004170B500F040F905
:103EA000097EFC3E00F007B881EA03014FF00000F4
:103EB00001F00041704781EA030100F07FB9F0BCD6
:103EC000BDE800414FF0000021497047FFFDFBF9BC
:103ED000F7F5F4F2F0EEEDEBE9E8E6E4E3E1E0DE3D
:103EE000DDDBDAD8D7D5D4D3D1D0CFCDCCCBCAC8AF
:103EF000C7C6C5C4C2C1C0BFBEBDBCBBBAB9B8B7D6
:103F0000B6B5B4B3B2B1B0AFAEADACABAAA9A8A8C8
:103F1000A7A6A5A4A3A3A2A1A09F9F9E9D9C9C9B96
:103F20009A99999897979695959493939291919041
:103F30008F8F8E8E8D8C8C8B8B8A898988888787D2
:103F40008685858484838382828181800000FF0747
:103F50000000F87F51EA030C17D41CF5801F58BFEE
:103F6000BCF5801F00F10680994218BF704708BF5A
:103F70009042704707D711F5801F58BF13F5801F77
:103F800019D499427047894270471CF5801F08D5A3
:103F9000BCF5801FF7D58B4218BF704708BF82421F
:103FA00070474FF4001C1CEB410F38BF1CEB430F54
:103FB00001D28B42704770B500F0B2F892244900EC
:103FC0004FF000514FF08053FFF760BEDFF848C15B
:103FD00070B51CEA111E1EBF1CEA13159EEA0C0FD9
:103FE00095EA0C0F00F06F8081EA030423EA4C137A
:103FF0004EEAD47E21EA4C1141F4801143F480133F
:10400000AE44A1FB024CA0FB0365AEF17F7E3619E6
:1040100055EB0C05A1FB034C4CF10003A0FB021C6B
:1040200016EB0C06654153F10003094218BF46F038
:10403000010613F4007F0BD14FEA03314FEA05303C
:10404000340341EA155140EA16506FF003020AE0CA
:104050004FEAC3214FEAC520F40241EA555140EA34
:1040600056506FF0020202EB2E4201EB025585EA38
:10407000CE710AD05FEA440C18BF24F0004450F11E
:10408000000041F1000120EAD47040F2FE7C62455C
:1040900000D270BDA84214BF4FF080444FF040449E
:1040A000002E08BF0024BEF1806FA8BFA1F1C0415F
:1040B000BDE8704080F282804FF0000001F1C04105
:1040C00001F0004170479EEA0C0F0CEA131518BF6F
:1040D00095EA0C0F06D04FF0000081EA030E0EF0B7
:1040E000004170BD00F01CF88900013E00F007B8E7
:1040F00000F009B84FEA430C5FEA5C5C08D081EA43
:10410000030100F05BB84FEA410C5FEA5C5CF6D15A
:104110004FF00000014970470000FF070000F87FE2
:104120000EF1020E2EF0030E5EF8046B364205D43B
:10413000012A43EB030515F5001F12D8012841EBB6
:10414000010C1CF5001F0CD80ED14FEAD17C15F5DF
:10415000001F0CEB4C0C0CF1020C08BF4CEBD37C99
:1041600004E04FF0080C01E04FEAD37C0CEB4C0567
:1041700026FA05F606F00706B6F1040C06D20EEB99
:10418000860CBDE870404CF0010C6047DFE80CF095
:10419000090B02024FF000414FF00000A1F5002191
:1041A00070BD19461046012851EB010418BFD4F523
:1041B000001484BF002001F0004170BD0808A0F584
:1041C00000114FEA3101704791EA030F10B581F0F9
:1041D00000413FF5B3AC83F0004300F009B80000A4
:1041E00010B591EA030F48BF83F000433FF5A6AC3A
:1041F000841A71EB030C07D212198CF0004C43EBBC
:104200000C03001B61EB0C01DFF8A4E14FEA115431
:10421000A4EB135C1EEA430F18BF9EEA445F00F054
:10422000B08023EA6E03524221EA0451C3EB6E03CD
:1042300038BF5B1EDCF1200E25D322FA0CFE10EBFA
:104240000E0043FA0CFE41EB0E01CCF1200E03FAF6
:104250000EFE10EB0E0051F10001CCF1200E29D41E
:1042600012FA0EF201EB0451BDE8104058BF70473E
:10427000401C1CBFB2F1004F704700280CBF491C06
:1042800020F00100704712EB020E43EB030218BF4F
:104290004FF0010E4EEA4202ACF1200CDCF11E0E92
:1042A00054D943FA0CFE10EB0E0051F1FF31CCF162
:1042B0001E0ED5D50EF1010E12FA0EFE404141EB55
:1042C000010101EB445C5FEA5C5C10D910EBDE702D
:1042D00001EB045138BFBEF1004FBDE8104018BFDC
:1042E000704700280CBF491C20F00100704730D2F5
:1042F0004FEAD42C11F5001124F400641BD0B1FA5C
:1043000081F20B3AA41AA41ED2F12003914030FA94
:1043100003F31943904001EBCC71002C01EB0451E5
:10432000BDE81040A8BF704701F1C0414FF0000048
:1043300001F000417047B0FA80F310FA03F100D1A8
:1043400010BDE41A173C4805C90AE4E701EB045123
:1043500010BD491001EB0451BDE810404FEA300098
:1043600002E04FF0000170474A0008BF0042F8D059
:10437000B2F5001F28BF704701F000414FF0000068
:1043800070479EEA445F07D011EA5E0FBDE8104017
:1043900004BF002100207047BDE8104070B5FFF752
:1043A000BFFE00BF40DFF63E83F00041104670477D
:1043B0000000E0FF43004FEAD30C4FEA3C0C4340BF
:1043C0001FBF40070CF1605113F0FE4F70471CF007
:1043D000006F03D100200CF0004170470CF0004347
:1043E00043EA507010B540EACC0000F090FA00BFEC
:1043F000000000924FEA0001FFF7E0BE4FF00041DD
:104400004FF00000A1F500217047000090EA010F75
:1044100048BF81F0004100F1FE82421A3CBF801A81
:1044200089184FEAD0524FF07F4C1CEA410FA2EBA3
:10443000D15318BF9CEA026F00F03B804FF0004C54
:104440004CEA00204CEA012121FA03FC10EB0C0C91
:104450001ED202F1FF325FEA1C2040EBC25038BF8F
:1044600070471CF07F0F4FEA400C18BFBCF17F4F24
:1044700038BF7047C3F12003994008BF20F0010006
:10448000BCF17F4F38BF7047A0F1C04000F085BA43
:104490004FEA3C00000A40EBC25028BF1CF0FF0F5F
:1044A0004FEA400CE6D018BFBCF17F4F38BF7047D1
:1044B000EAE79CEA026F05D010EA5C0F08BF00F043
:1044C0000040704710B500F022FA00BF64FBBE3E0A
:1044D000401058BFC0F14040491058BFC1F14041A1
:1044E0008142EFF3008070474FF47F0C1CEAD0123A
:1044F0001EBF1CEAD11392EA0C0F93EA0C0F00F0D6
:10450000858090EA010F48BF42F4807240F4000CAD
:1045100041F400002CF07F4120F07F4000B5814243
:10452000A2EB03020FF2081CACEB504EC0F10000EE
:104530009EF800E04FEA4E0E00FB0EFC38BF49002B
:104540004FEA2C1C02F5FA020CFB0EF34FEACE1ECA
:104550004FEA112C4FEAC1210EEB635E42EB22427F
:104560000EFB0CFC4FEA1C5300FB03114FEA112C0D
:104570004FEA01310EFB0CFC4FEADC4C00FB0C1146
:10458000C14228BF09184CEB03335DF804EB10EB74
:10459000410143EBC250B2F57C0F38BF704729D5BB
:1045A00012F0F00F1CBF00F1C04000F00040704757
:1045B000008182838485868788898B8C8D8E8F91FC
:1045C0009293959697999A9C9D9FA0A2A3A5A7A820
:1045D000AAACAEB0B2B3B5B7B9BCBEC0C2C5C7C94C
:1045E000CCCED1D4D7D9DCDFE2E6E9ECF0F3F7FAB0
:1045F000FE0000004FEA400C0CF1807CBCF17E4FC5
:1046000028BF7047B0F1C04000F0C7B990EA010F71
:104610000CEAD11348BF42F48072624538BF63454B
:1046200007D213F47F0F16D080EA010000F000409B
:10463000704710B500F06BF9097EFC3E00F005B83C
:1046400080EA010000F00040704780EA010000F0BD
:10465000004000F0A2B912F47F0F04BF0248704777
:1046600080EA010000F099B90000C07F50EA010C17
:1046700000F113801CF5000F58BFBCF5000F01D4EA
:104680008842704707D710F5000F58BF11F5000F8B
:1046900015D488427047894270471CF5000F04D535
:1046A000BCF5000FF7D5814270474FF0807C1CEBC2
:1046B000400F38BF1CEB410F01D28142704710B54B
:1046C00000F025F9922449004FF000504FF080513E
:1046D000FFF7FEBE41000B0ED3F19E0208D950F445
:1046E00000034FEA032323FA02F048BF4042704719
:1046F00010B500F00CF900BF4992248000207047EB
:104700006FF0004282EA200070470000C10DD1F135
:104710009E0206DB4FEA002343F0004323FA02F037
:104720007047004207D54FEA4001B1F1FE4F02D277
:104730004FF00000704710B500F0E9F8499224806E
:10474000002070476FEA20007047000010F0004121
:1047500048BF4042B0FA80F310FA03F2C3F19D0360
:104760000BD051EAC35101EB1220530638BF7047FA
:1047700000F1010008BF20F001007047B0FA80F39B
:1047800010FA03F2C3F19D030AD0D90501EB122000
:10479000530638BF704700F1010008BF20F0010048
:1047A0007047000050EA010C00F113801CF5000F67
:1047B00058BFBCF5000F01D48842704707D710F5E9
:1047C000000F58BF11F5000F15D488427047894279
:1047D00070471CF5000F04D5BCF5000FF7D58142DA
:1047E00070474FF0807C1CEB400F38BF1CEB410F33
:1047F00001D28142704710B500F089F89224490037
:104800004FF000504FF08051FFF762BE4FF47F0C25
:104810001CEAD0121EBF1CEAD11392EA0C0F93EAD5
:104820000C0F00F0478090EA010F48BF42F48072FD
:104830004FF0004C4CEA00204CEA012102EB03024D
:10484000A0FB0113A2F50002002918BF43F00103E9
:104850005B0028BF4FEA330342EB22425FEA132C8E
:104860004CEBC2502EBFBCEB436FB2F57C0F7047D0
:104870004FEA036CBCF1004F08BF20F00100B2F515
:104880007C0F38BF70470BD582F0FF0212F5803FD6
:10489000C8BF704700F1C040D8BF00F0004070476B
:1048A00000F5000C5FEA4C0C48BF7047B0F1C04007
:1048B00000F073B890EA010F0CEAD11348BF42F43C
:1048C0008072624538BF634504D280EA010000F07F
:1048D0000040704710B500F01AF800BF8900013E93
:1048E00000F007B800F009B85FEA410C5FEA1C6C01
:1048F00008D080EA010000F050B85FEA400C5FEA9F
:104900001C6CF6D14FF00040A0F5800070470EF10E
:10491000020E2EF0030E5EF8044B244204D44FEA3C
:104920004102B2F17F4F11D84FEA4003B3F17F4FFC
:104930000CD80ED14FEAD07CB2F17F4F0CEB4C0C6F
:104940000CF1020C08BF4CEBD17C04E04FF0080CDA
:1049500001E04FEAD17C0CEB4C0324FA03F404F0A1
:104960000704B4F1040C06D20EEB840CBDE8104031
:104970004CF0010C6047DFE80CF0070802024FF032
:104980000040A0F5800010BD0846420018BFD2F1DB
:10499000807288BF00F0004010BDFF2141EAD05076
:1049A000C005704751EA000C00F113801CF5000FA0
:1049B00058BFBCF5000F01D48142704707D711F5ED
:1049C000000F58BF10F5000F15D48142704789427F
:1049D00070471CF5000F04D5BCF5000FF7D58842D1
:1049E00070474FF0807C1CEB410F38BF1CEB400F31
:1049F00001D28842704780EA010081EA000180EA22
:104A00000100FFF7F8BE000090EA010F48BF81F0F7
:104A100000413FF502AD421A04D882F00042A0EBFB
:104A2000020011444FEAD0524FF07F4C1CEA410F74
:104A3000A2EBD15318BF9CEA026F4AD04FF0004C52
:104A40004CEA00204CEA012121FA03FCB0EB0C0CEB
:104A50000FD412F0FE0F36D05FEA4C001DD50012C5
:104A600040EBC25038BF70471CF03F0F18BF704773
:104A70000BE0A2F101025FEA1C2040EBC25038BFFC
:104A800070471CF07F0F18BF7047C3F12003994097
:104A900014BF401E20F00100704780084FEA122327
:104AA00008BF7047B0FA80FCA2EB0C02CCF1280CD6
:104AB00060FA0CF093EA122F04BF00EBC25070476B
:104AC0004FEAC3707047130A5FEADC1008BF7047F3
:104AD000F6E79CEA026F04D010EA5C0F08BF0020E2
:104AE000704710B5FFF713FF40DFF63E81F000403E
:104AF00070470CF00F03092B08BF082000F0598005
:104B00000A2B0BD0082B18BF704708BF1CF0400FB2
:104B10000AD04FF000004FF0000170471CF0400F2A
:104B200018BF4FF0004070471CF0100F08D020F065
:104B3000704300F07F4242EAD3014FEA437070476E
:104B400000F0604021F07F4242EA000201F07F4025
:104B500040EA727070474FF0FF0C4CF4E06C1CEAB6
:104B600011531CBF9CEA030C9445C2BFDA4201EB0F
:104B700002517047002B0DD0BCF1000F0FD0002A5E
:104B800001F00041A4BF41F0E04141F07F614FF0EE
:104B90000000704701F000414FF00000704750EAFC
:104BA00001334FF09B0C18BF4CF0806C7FF466A86B
:104BB00070471CF4801F11D01CF4E02F03D06FEA63
:104BC000CC31490070474FF04050EFF3008222F0A3
:104BD000704242EA000282F3008870474FF0000002
:104BE000704700006800000476005401F7FD0001E2
:104BF00075191A0C6A231B1C1F207274433B413821
:104C0000393A6B6C376F06246D6E700083000000BC
:104C100000080000000100183200050000002041DB
:104C20000000D242295C0F3E9A99993E3333733F7C
:104C3000295C0F3E0000700000000024000000020C
:104C40000003000000650054FFEF0000FA80000B35
:104C500012820001030C30C30E8C8CE914D5400283
:104C600013710F8E3883F8833000F883258EF88314
:104C70003000F883FFFFFFFF0FFEA9D624000400D9
:104C80001A8279A10000003CFFFF00000010000024
:104C900038836FA2003E03304000000002CAE309DF
:104CA0003E800000200000000000000040000000E6
:104CB00060000000000C0000000C186E000006925E
:104CC0000A16C0DFFFFF0256FD8CD377FFE1C496C2
:104CD000E0C5BEAA00000000FFFF0B2B0000165726
:104CE000000003594000000000001DFA00026C1D86
:104CF000000000003FFFDFEB003EB3B6000D22785E
:104D000000002F3C00000000001942B5000039A24D
:104D10000000B365D90E9FC91DCF4C343000000090
:104D2000500000003BB67AE80064000000C80000B4
:104D300000000000100000001000FA921000225E37
:104D4000000D229F0001000000320000FF4600001D
:104D500063D400001000000004D6000004CC000062
:104D600004CC0000000010720000004000000000B1
:104D7000000000000006000200050007000000001F
:104D80000064000000000000000000050005006451
:104D900000200000000000000000000000004000B3
:104DA0000000030000000032F8980000FF650000DA
:104DB000830F0000FF9BFC000000000000000000CB
:104DC00000000000000000000000000000000000E3
:104DD00000000000000000000000000000000000D3
:104DE0000000100040000000000000060000B26A51
:104DF000000200000001FB830068000000D9FC00F5
:104E00007CF1FF830000000000650000006403E8FF
:104E100000640028000000250000000016A000002B
:104E20000000100000001000002F0000000001F43E
:104E30000000100000280000FFFF4581FFFFFA720C
:104E40000000000000000000004400050005BAC694
:104E5000004778A2000000010000000000000600EA
:104E6000000000140000254D002F706D000005AEFD
:104E7000000C02D000000000000000000000000054
:104E800000000000001B0000000000000000000007
:104E900000000000006400000008000000000000A6
:104EA0000000000000000000000000000000000002
:104EB00000000000000000000000000000000000F2
:104EC00000000000000000000000000000000000E2
:104ED00000000000000000000000000000000000D2
:104EE00000000000000000000000000000000000C2
:104EF00000000000001B0000000000000000000097
:104F0000000E000E00000AC700040000000000327E
:104F1000FFFFFF9C00000B2B0000000200000001BF
:104F200000000064FFE50000000000000000000039
:104F3000000000000000000100000000000100006F
:104F400000000000000180000001800000018000DE
:104F5000002426D30000000000000000000600101E
:104F60000096003C0000000000000000000000006F
:104F7000000000000C0A4E68CDCF77095016675923
:104F8000C619CE82000000000000000000000000F2
:104F900000000000000000000000000017D784009F
:104FA000030000000000000000000000C7938F9D78
:104FB0001E1B1C1900000000000000000000000083
:104FC000000000000000000000000000020318853F
:104FD000000040000000000300000003000000008B
:104FE0000000000040000000000000000000000081
:104FF00000000000000000000000000000000000B1
:1050000000000000000000000000000000000000A0
:105010000000000000000000677DDF7E72902E55CA
:105020004CF6E688000000000000000000000000D0
:1050300000000000D8DCB4B8B0D8B9ABF3F8FAB3CC
:10504000B7BB8E9EAEF132F51BF1B4B8B08097F1CC
:10505000A9DFDFDFAADFDFDFF2AAC5CDC7A90CC950
:105060002C97F1A989264666B28999A92D557DB05C
:10507000B08AA896365676F1BAA3B4B280C0B8A862
:105080009711B28398BAA3F0240844106418B2B9F7
:10509000B49883F1A329557DBAB5B1A38393F000E9
:1050A0002850F5B2B6AA839328547CF1B9A3829311
:1050B00061BAA2DADEDFDB819AB9AEF5606870F121
:1050C000DABAA2DFD9BAA2FAB9A38292DB31BAA2C4
:1050D000D9BAA2F8DF85A4D0C1BBAD83C2C5C7B819
:1050E000A2DFDFDFBAA0DFDFDFD8D8F1B8AAB38D47
:1050F000B4980D355DB2B6BAAF8C96198F9FA70ED6
:10510000161EB49AB8AA872C547CBAA4B08AB69159
:10511000325676B28494A4C808CDD8B8B4B0F19908
:1051200082A82D557D98A80E161EA22C547C92A400
:10513000F02C5078F184A898C4CDFCD80DDBA8FCE5
:105140002DF3D9BAA6F8DABAA6DED8BAB2B68696E0
:10515000A6D0F3C841DAA6C8F8D8B0B4B882A892ED
:10516000F52C548898F135D9F418D8F1A2D0F8F973
:10517000A884D9C7DFF8F883C5DADF69DF83C1D82F
:10518000F40114F1A8824EA884F311D182F5D992CA
:10519000289788F109F41C1CD884A8F3C0F9D1D948
:1051A0009782F129F40DD8F3F9F9D1D982F4C20329
:1051B000D8DEDF1AD8F1A2FAF9A88498D9C7DFF8A7
:1051C000F8F883C7DADF69DFF883C3D8F40114F194
:1051D00098A8822EA884F311D182F5D9925097888D
:1051E000F109F41CD884A8F3C0F8F9D1D99782F159
:1051F00049F40DD8F3F9F9D1D982F4C403D8DEDF2C
:10520000D8F1AD8898CCA809F9D98292A8F57CF19B
:10521000883ACF944A6E98DB6931DAADF2DEF9D87C
:105220008795A8F221D1DAA5F9F417D9F1AE8ED07D
:10523000C0C3AE82C684C3A88595C8A588F2C0F154
:10524000F4010EF18E9EA8C63E56F554F18872F414
:105250000115F19845856EF58E9E0488F142985AA5
:105260008E9E068869F4011CF1981E1108D0F50481
:10527000F11E970202983625DBF9D985A5F3C1DA2C
:1052800085A5F3DFD88595A8F309DAA5FAD8829227
:10529000A8F578F1881A849F26889821DAF41DF3FE
:1052A000D8879F39D1AFD9DFDFFBF9F40CF3D8FAF7
:1052B000D0F8DAF9F9D0DFD9F9D8F40BD8F3879F11
:1052C00039D1AFD9DFDFF41DF3D8FAFCA869F9F9B9
:1052D000AFD0DADEFAD9F88F9FA8F1CCF398DB458E
:1052E000D9AFDFD0F8D8F18F9FA8CAF38809DAAF19
:1052F0008FCBF8D8F2AD978D0CD9A5DFF9BAA6F30C
:10530000FAF412F2D8950DD1D9BAA6F3FADAA5F2C9
:10531000C1BAA6F3DFD8F1BAB2B68696A6D0CAF360
:1053200049DAA6CBF8D8B0B4B8D8AD84F2C0DFF172
:105330008FCBC3A8B2B68696C8C1CBC3F3B0B4882E
:1053400098A821DB718D9D71859521D9ADF2FAD890
:105350008597A828D9F408D8F28D29DAF405D9F26E
:1053600085A4C2F2D8A88D9401D1D9F411F2D887BE
:1053700021D8F40AD8F28498A8C801D1D9F411D858
:10538000F3A4C8BBAFD0F2DEF8F8F8F8F8F8F8F8F4
:10539000D8F1B8F6B5B9B08A95A3DE3CA3D9F8D850
:1053A0005CA3D9F8D87CA3D9F8D8F8F9D1A5D9DF6E
:1053B000DAFAD8B18530F7D9DED8F830ADDADED8F0
:1053C000F2B48C99A32D557DA083DFDFDFB591A0CA
:1053D000F629D9FBD8A0FC29D9FAD8A0D051D9F800
:1053E000D8FC51D9F9D879D9FBD8A0D0FC79D9FA11
:1053F000D8A1F9F9F9F9F9A0DADFDFDFD8A1F8F8D7
:10540000F8F8F8ACDEF8ADDE8393AC2C547CF1A850
:10541000DFDFDFF69D2CDAA0DFD9FADB2DF8D8A884
:1054200050DAA0D0DED9D0F8F8F8DB55F8D8A87853
:10543000DAA0D0DFD9D0FAF8F8F8F8DB7DF8D89CFC
:10544000A88CF530DB38D9D0DEDFA0D0DEDFD8A8DD
:1054500048DB58D9DFD0DEA0DFD0DED8A868DB700B
:10546000D9DFDFA0DFDFD8F1A888902C547C98A882
:10547000D05C38D1DAF2AE8CDFF9D8B087A8C1C1E0
:10548000B188A8C6F9F9DA36D8A8F9DA36D8A8F971
:10549000DA36D8A8F9DA36D8A8F9DA36D8F78D9DF1
:1054A000ADF818DAF2AEDFD8F7ADFA30D9A4DEF9EC
:1054B000D8F2AEDEFAF983A7D9C3C5C7F1889BA796
:1054C0007AADF7DEDFA4F8849408A797F300AEF274
:1054D0009819A488C6A39488F632DFF28393DB0977
:1054E000D9F2AADFD8D8AEF8F9D1DAF3A4DEA7F161
:1054F000889B7AD8F38494AE19F9DAAAF1DFD8A898
:1055000081C0C3C5C7A39283F628ADDED9F8D8A35E
:1055100050ADD9F8D8A378ADD9F8D8F8F9D1A1DA37
:10552000DEC3C5C7D8A18194F818F2B089ACC3C551
:10553000C7F1D8B8B4B09786A8319B069907AB9746
:1055400028889BF00C201440B0B4B8F0A88A9A28A0
:105550005078B79BA8295179247059446938644818
:1055600031F1BBAB88002C547CF0B38BB8A8042875
:105570005078F1B088B49726A85998BBABB38B028A
:10558000264666B0B8F08A9CA82951798B295179B2
:105590008A2470598B2058718A4469388B39406845
:1055A0008A6448318B30496088F1AC002C547CF01F
:1055B0008CA804285078F1889726A85998AC8C02BA
:1055C000264666F0899CA829517924705944693887
:1055D000644831A98809205970AB11384069A8196D
:1055E0003148608CA83C415C207C00F1879819868A
:1055F000A86E767EA999882D557DD8B1B5B9A3DF5F
:10560000DFDFAED0DFAAD0DEF2ABF8F9D9B087C4C5
:10561000AAF1DFDFBBAFDFDFB9D8B1F1A3978E60AE
:10562000DFB084F2C8F8F9D9DED89385F14AB183A6
:10563000A308B5839A0810B79F10D8F1B0BAAEB0DE
:105640008AC2B2B68E9EF1FBD9F41DD8F9D90CF1FD
:10565000D8F8F8AD61D9AEFBD8F40CF1D8F8F8ADB4
:1056600019D9AEFBDFD8F416F1D8F8AD8D61D9F4B5
:10567000F4ACF59C9C8DDF2BBAB6AEFAF8F40BD8DF
:10568000F1AED0F8AD51DAAEFAF8F1D8B9B1B6A3AF
:10569000839C08B9B1839AB5AAC0FD3083B79F1027
:1056A000B58B93F20202D1ABDADED8F1B080BAAB9F
:1056B000C0C3B284C1C3D8B1B9F38BA391B609B446
:1056C000D9ABDEB0879CB9A3DDF1B38B8B8B8B8B11
:1056D000B087A3A3A3A3B28BB69BF2A3A3A3A3A358
:1056E000A3A3A3A3A3F1B087B59AA3F39BA3A3DCC1
:1056F000BAACDFB9A3A3A3A3A3A3A3A3A3A3A3A308
:10570000A3A3A3A3D8D8D8BBB3B7F1AAF9DAFFD91A
:10571000809AAA28B48098A720B79787A86688F0AF
:105720007951F1902C870CA781976293F071716089
:1057300085940129517990A5F1284C6C870C951816
:105740008578A38390284C6C886CD8F3A28200F2F1
:1057500010A8921980A2F2D926D8F188A84DD9486C
:10576000D896A83980D93CD89580A839A68698D9EA
:105770002CDA87A72CD8A8899519A980D938D8A858
:105780008939A980DA3CD8A82EA83990D90CD8A894
:10579000953198D90CD8A809D9FFD801DAFFD89546
:1057A00039A9DA26FFD890A80D8999A810809821E8
:1057B000DA2ED88999A83180DA2ED8A88696318039
:1057C000DA2ED8A8873180DA2ED8A88292F34180C9
:1057D000F1D92ED8A882F31980F1D92ED882ACF352
:1057E000C0A28022F1A62EA72EA92298A829DAAC61
:1057F000DEFFD8A2F22AF1A92E8292A8F23180A669
:1058000096F1D900AC8C9C0C30ACDED0DEFFD88C8D
:105810009CACD010ACDE8092A2F24C82A8F1CAF20D
:1058200035F19688A6D900D8F1FF000000000000ED
:105830004FBB610567ACDD3F182D4454FB21E93FA8
:105840009BF681D20B73EF3F182D4454FB21F93F97
:10585000E2652F227F2B7A3C075C143326A6813C1D
:10586000BDCBF07A8807703C075C143326A6913CC8
:10587000C4EB98999999C9BF711623FEC671BCBF34
:105880006D9A74AFF2B0B3BF9AFDDE522DDEADBF9C
:105890002F6C6A2C44B4A2BF0D5555555555D53FB4
:1058A000FF8300922449C23F6E204CC5CD45B73FCF
:1058B000513DD0A0660DB13FEB0D76244B7BA93F47
:1058C00011DA22E33AAD903F000000000000000032
:1058D000F058000800000020700000006C01000873
:1058E0006059000870000020700600008801000860
:1058F000F04B0008E44B000800000000000000002E
:105900000000000000000000000000000000000097
:1059100000000000000000000C4C00080000000027
:105920000000000000000000000000000000000077
:1059300000000000000000000000803F00000000A8
:105940000000000000000000FF000000FF00000059
:105950000100000000000000000000000000000046
:0400000508000131BD
:00000001FF
